{
  "contractName": "SmartKetplace",
  "abi": [
    {
      "anonymous": false,
      "inputs": [
        {
          "indexed": false,
          "internalType": "uint256",
          "name": "houseId",
          "type": "uint256"
        }
      ],
      "name": "NewHouse",
      "type": "event"
    },
    {
      "anonymous": false,
      "inputs": [
        {
          "indexed": true,
          "internalType": "address",
          "name": "_from",
          "type": "address"
        },
        {
          "indexed": true,
          "internalType": "address",
          "name": "_to",
          "type": "address"
        },
        {
          "indexed": false,
          "internalType": "uint256",
          "name": "_tokenId",
          "type": "uint256"
        }
      ],
      "name": "Transfer",
      "type": "event"
    },
    {
      "constant": true,
      "inputs": [
        {
          "internalType": "uint256",
          "name": "",
          "type": "uint256"
        }
      ],
      "name": "houseToOwner",
      "outputs": [
        {
          "internalType": "address payable",
          "name": "",
          "type": "address"
        }
      ],
      "payable": false,
      "stateMutability": "view",
      "type": "function"
    },
    {
      "constant": true,
      "inputs": [
        {
          "internalType": "uint256",
          "name": "",
          "type": "uint256"
        }
      ],
      "name": "houses",
      "outputs": [
        {
          "internalType": "string",
          "name": "location",
          "type": "string"
        },
        {
          "internalType": "uint8",
          "name": "roomCount",
          "type": "uint8"
        },
        {
          "internalType": "uint16",
          "name": "area",
          "type": "uint16"
        },
        {
          "internalType": "uint32",
          "name": "price",
          "type": "uint32"
        }
      ],
      "payable": false,
      "stateMutability": "view",
      "type": "function"
    },
    {
      "constant": false,
      "inputs": [
        {
          "internalType": "string",
          "name": "_location",
          "type": "string"
        },
        {
          "internalType": "uint8",
          "name": "_roomCount",
          "type": "uint8"
        },
        {
          "internalType": "uint16",
          "name": "_area",
          "type": "uint16"
        },
        {
          "internalType": "uint32",
          "name": "_price",
          "type": "uint32"
        },
        {
          "internalType": "uint256[]",
          "name": "_documents",
          "type": "uint256[]"
        }
      ],
      "name": "addHouse",
      "outputs": [],
      "payable": false,
      "stateMutability": "nonpayable",
      "type": "function"
    },
    {
      "constant": false,
      "inputs": [
        {
          "internalType": "uint256",
          "name": "_houseId",
          "type": "uint256"
        },
        {
          "internalType": "address payable",
          "name": "_buyer",
          "type": "address"
        }
      ],
      "name": "buyHouse",
      "outputs": [],
      "payable": true,
      "stateMutability": "payable",
      "type": "function"
    }
  ],
  "bytecode": "0x608060405234801561001057600080fd5b50610937806100206000396000f3fe60806040526004361061003f5760003560e01c806338e6d10f14610044578063aeda852f146101cb578063cf9ce6fc146102ae578063e2a0e63c14610329575b600080fd5b34801561005057600080fd5b506101c9600480360360a081101561006757600080fd5b810190808035906020019064010000000081111561008457600080fd5b82018360208201111561009657600080fd5b803590602001918460018302840111640100000000831117156100b857600080fd5b91908080601f016020809104026020016040519081016040528093929190818152602001838380828437600081840152601f19601f820116905080830192505050505050509192919290803560ff169060200190929190803561ffff169060200190929190803563ffffffff1690602001909291908035906020019064010000000081111561014657600080fd5b82018360208201111561015857600080fd5b8035906020019184602083028401116401000000008311171561017a57600080fd5b919080806020026020016040519081016040528093929190818152602001838360200280828437600081840152601f19601f820116905080830192505050505050509192919290505050610377565b005b3480156101d757600080fd5b50610204600480360360208110156101ee57600080fd5b8101908080359060200190929190505050610517565b60405180806020018560ff1660ff1681526020018461ffff1661ffff1681526020018363ffffffff1663ffffffff168152602001828103825286818151815260200191508051906020019080838360005b83811015610270578082015181840152602081019050610255565b50505050905090810190601f16801561029d5780820380516001836020036101000a031916815260200191505b509550505050505060405180910390f35b3480156102ba57600080fd5b506102e7600480360360208110156102d157600080fd5b8101908080359060200190929190505050610617565b604051808273ffffffffffffffffffffffffffffffffffffffff1673ffffffffffffffffffffffffffffffffffffffff16815260200191505060405180910390f35b6103756004803603604081101561033f57600080fd5b8101908080359060200190929190803573ffffffffffffffffffffffffffffffffffffffff16906020019092919050505061064a565b005b6000600160006040518060a001604052808981526020018860ff1681526020018761ffff1681526020018663ffffffff168152602001858152509080600181540180825580915050906001820390600052602060002090600302016000909192909190915060008201518160000190805190602001906103f8929190610810565b5060208201518160010160006101000a81548160ff021916908360ff16021790555060408201518160010160016101000a81548161ffff021916908361ffff16021790555060608201518160010160036101000a81548163ffffffff021916908363ffffffff1602179055506080820151816002019080519060200190610480929190610890565b505050039050336001600083815260200190815260200160002060006101000a81548173ffffffffffffffffffffffffffffffffffffffff021916908373ffffffffffffffffffffffffffffffffffffffff1602179055507fa79d82e7357ca79a1b69fcc3bfae2223e25fa362d0648efd4070642307148e7c816040518082815260200191505060405180910390a1505050505050565b6000818154811061052457fe5b9060005260206000209060030201600091509050806000018054600181600116156101000203166002900480601f0160208091040260200160405190810160405280929190818152602001828054600181600116156101000203166002900480156105d05780601f106105a5576101008083540402835291602001916105d0565b820191906000526020600020905b8154815290600101906020018083116105b357829003601f168201915b5050505050908060010160009054906101000a900460ff16908060010160019054906101000a900461ffff16908060010160039054906101000a900463ffffffff16905084565b60016020528060005260406000206000915054906101000a900473ffffffffffffffffffffffffffffffffffffffff1681565b808073ffffffffffffffffffffffffffffffffffffffff163373ffffffffffffffffffffffffffffffffffffffff161461068357600080fd5b61068c836107d9565b63ffffffff16341461069d57600080fd5b60006001600085815260200190815260200160002060009054906101000a900473ffffffffffffffffffffffffffffffffffffffff1690508073ffffffffffffffffffffffffffffffffffffffff166108fc349081150290604051600060405180830381858888f1935050505015801561071b573d6000803e3d6000fd5b50826001600086815260200190815260200160002060006101000a81548173ffffffffffffffffffffffffffffffffffffffff021916908373ffffffffffffffffffffffffffffffffffffffff1602179055508273ffffffffffffffffffffffffffffffffffffffff168173ffffffffffffffffffffffffffffffffffffffff167fddf252ad1be2c89b69c2b068fc378daa952ba7f163c4a11628f55a4df523b3ef866040518082815260200191505060405180910390a350505050565b60008082815481106107e757fe5b906000526020600020906003020160010160039054906101000a900463ffffffff169050919050565b828054600181600116156101000203166002900490600052602060002090601f016020900481019282601f1061085157805160ff191683800117855561087f565b8280016001018555821561087f579182015b8281111561087e578251825591602001919060010190610863565b5b50905061088c91906108dd565b5090565b8280548282559060005260206000209081019282156108cc579160200282015b828111156108cb5782518255916020019190600101906108b0565b5b5090506108d991906108dd565b5090565b6108ff91905b808211156108fb5760008160009055506001016108e3565b5090565b9056fea265627a7a72315820f29a86cfe2bd3ef092c7680d67ad7c565c1d54ff011edd8c19aa283c03a416f764736f6c634300050c0032",
  "source": "pragma solidity ^0.5.12;\n\ncontract SmartKetplace {\n    struct House {\n        string location;\n        uint8 roomCount;\n        uint16 area;\n        uint32 price;\n        uint256[] documents;\n    }\n    \n    House[] public houses;\n    mapping (uint256 => address payable) public houseToOwner;\n    \n    // Evènement lors de l'ajout d'une maison dans le catalogue\n    event NewHouse(uint houseId);\n    // Evènement lors du transfert du propriété d'une maison\n    event Transfer(address indexed _from, address indexed _to, uint256 _tokenId);\n    \n    // L'acheteur doit être l'exécuteur de la requête\n    modifier onlyBuyer(address buyer){\n        require(msg.sender == buyer);\n        _;\n    }\n\n    // Ajout d'une maison dans le catalogue de vente\n    function addHouse(string memory _location, uint8 _roomCount, uint16 _area, uint32 _price, uint[] memory _documents) public {\n        uint id = houses.push(House(_location, _roomCount, _area, _price, _documents)) - 1;\n        houseToOwner[id] = msg.sender;\n        emit NewHouse(id);\n    }\n    \n    // Achat d'une maison par une personne\n    function buyHouse(uint _houseId, address payable _buyer) public onlyBuyer(_buyer) payable {\n        require(msg.value == getHousePrice(_houseId));\n        \n        // Transfert monétaire\n        address payable oldOwner = houseToOwner[_houseId];\n        oldOwner.transfer(msg.value);\n        \n        // Transfert de la propriété dans la blockchain\n        houseToOwner[_houseId] = _buyer;\n        \n        // Appel de l'évènement\n        emit Transfer(oldOwner, _buyer, _houseId);\n    }\n    \n    // Récupération du prix d'une maison\n    function getHousePrice(uint _houseId) private view returns(uint32) {\n        return houses[_houseId].price;\n    }\n}",
  "sourcePath": "D:/Diego/Documents/ESGI/S3/Blockchain/projet/SmartKetplace/truffle/contracts/SmartKetplace.sol",
  "compiler": {
    "name": "solc",
    "version": "0.5.12+commit.7709ece9.Emscripten.clang"
  },
  "schemaVersion": "3.0.19",
  "updatedAt": "2019-12-03T17:13:01.563Z",
  "networkType": "ethereum",
  "devdoc": {
    "methods": {}
  },
  "userdoc": {
    "methods": {}
  }
}