{
  "contractName": "SmartKetplace",
  "abi": [
    {
      "anonymous": false,
      "inputs": [
        {
          "indexed": false,
          "internalType": "uint256",
          "name": "houseId",
          "type": "uint256"
        }
      ],
      "name": "NewHouse",
      "type": "event"
    },
    {
      "anonymous": false,
      "inputs": [
        {
          "indexed": true,
          "internalType": "address",
          "name": "_from",
          "type": "address"
        },
        {
          "indexed": true,
          "internalType": "address",
          "name": "_to",
          "type": "address"
        },
        {
          "indexed": false,
          "internalType": "uint256",
          "name": "_tokenId",
          "type": "uint256"
        }
      ],
      "name": "Transfer",
      "type": "event"
    },
    {
      "constant": true,
      "inputs": [
        {
          "internalType": "uint256",
          "name": "",
          "type": "uint256"
        }
      ],
      "name": "houseToOwner",
      "outputs": [
        {
          "internalType": "address payable",
          "name": "",
          "type": "address"
        }
      ],
      "payable": false,
      "stateMutability": "view",
      "type": "function"
    },
    {
      "constant": false,
      "inputs": [
        {
          "internalType": "string",
          "name": "_location",
          "type": "string"
        },
        {
          "internalType": "uint8",
          "name": "_roomCount",
          "type": "uint8"
        },
        {
          "internalType": "uint16",
          "name": "_area",
          "type": "uint16"
        },
        {
          "internalType": "uint32",
          "name": "_price",
          "type": "uint32"
        },
        {
          "internalType": "uint256[]",
          "name": "_documents",
          "type": "uint256[]"
        }
      ],
      "name": "addHouse",
      "outputs": [],
      "payable": false,
      "stateMutability": "nonpayable",
      "type": "function"
    },
    {
      "constant": false,
      "inputs": [
        {
          "internalType": "uint256",
          "name": "_houseId",
          "type": "uint256"
        },
        {
          "internalType": "address payable",
          "name": "_buyer",
          "type": "address"
        }
      ],
      "name": "buyHouse",
      "outputs": [],
      "payable": true,
      "stateMutability": "payable",
      "type": "function"
    },
    {
      "constant": true,
      "inputs": [],
      "name": "getHouses",
      "outputs": [
        {
          "components": [
            {
              "internalType": "string",
              "name": "location",
              "type": "string"
            },
            {
              "internalType": "uint8",
              "name": "roomCount",
              "type": "uint8"
            },
            {
              "internalType": "uint16",
              "name": "area",
              "type": "uint16"
            },
            {
              "internalType": "uint32",
              "name": "price",
              "type": "uint32"
            },
            {
              "internalType": "uint256[]",
              "name": "documents",
              "type": "uint256[]"
            }
          ],
          "internalType": "struct SmartKetplace.House[]",
          "name": "",
          "type": "tuple[]"
        }
      ],
      "payable": false,
      "stateMutability": "view",
      "type": "function"
    },
    {
      "constant": true,
      "inputs": [
        {
          "internalType": "uint256",
          "name": "_houseId",
          "type": "uint256"
        }
      ],
      "name": "getHouse",
      "outputs": [
        {
          "components": [
            {
              "internalType": "string",
              "name": "location",
              "type": "string"
            },
            {
              "internalType": "uint8",
              "name": "roomCount",
              "type": "uint8"
            },
            {
              "internalType": "uint16",
              "name": "area",
              "type": "uint16"
            },
            {
              "internalType": "uint32",
              "name": "price",
              "type": "uint32"
            },
            {
              "internalType": "uint256[]",
              "name": "documents",
              "type": "uint256[]"
            }
          ],
          "internalType": "struct SmartKetplace.House",
          "name": "",
          "type": "tuple"
        }
      ],
      "payable": false,
      "stateMutability": "view",
      "type": "function"
    }
  ],
  "bytecode": "0x608060405234801561001057600080fd5b5061129b806100206000396000f3fe60806040526004361061004a5760003560e01c80633107c99d1461004f57806338e6d10f1461008c578063cf9ce6fc146100b5578063e2a0e63c146100f2578063fd5f33ec1461010e575b600080fd5b34801561005b57600080fd5b5061007660048036036100719190810190610bba565b610139565b6040516100839190610fce565b60405180910390f35b34801561009857600080fd5b506100b360048036036100ae9190810190610b13565b6102cb565b005b3480156100c157600080fd5b506100dc60048036036100d79190810190610bba565b61046b565b6040516100e99190610f51565b60405180910390f35b61010c60048036036101079190810190610be3565b61049e565b005b34801561011a57600080fd5b506101236106ad565b6040516101309190610f6c565b60405180910390f35b6101416108a5565b6000828154811061014e57fe5b90600052602060002090600302016040518060a0016040529081600082018054600181600116156101000203166002900480601f0160208091040260200160405190810160405280929190818152602001828054600181600116156101000203166002900480156102005780601f106101d557610100808354040283529160200191610200565b820191906000526020600020905b8154815290600101906020018083116101e357829003601f168201915b505050505081526020016001820160009054906101000a900460ff1660ff1660ff1681526020016001820160019054906101000a900461ffff1661ffff1661ffff1681526020016001820160039054906101000a900463ffffffff1663ffffffff1663ffffffff168152602001600282018054806020026020016040519081016040528092919081815260200182805480156102bb57602002820191906000526020600020905b8154815260200190600101908083116102a7575b5050505050815250509050919050565b6000600160006040518060a001604052808981526020018860ff1681526020018761ffff1681526020018663ffffffff1681526020018581525090806001815401808255809150509060018203906000526020600020906003020160009091929091909150600082015181600001908051906020019061034c9291906108e1565b5060208201518160010160006101000a81548160ff021916908360ff16021790555060408201518160010160016101000a81548161ffff021916908361ffff16021790555060608201518160010160036101000a81548163ffffffff021916908363ffffffff16021790555060808201518160020190805190602001906103d4929190610961565b505050039050336001600083815260200190815260200160002060006101000a81548173ffffffffffffffffffffffffffffffffffffffff021916908373ffffffffffffffffffffffffffffffffffffffff1602179055507fa79d82e7357ca79a1b69fcc3bfae2223e25fa362d0648efd4070642307148e7c8160405161045b9190610ff0565b60405180910390a1505050505050565b60016020528060005260406000206000915054906101000a900473ffffffffffffffffffffffffffffffffffffffff1681565b808073ffffffffffffffffffffffffffffffffffffffff163373ffffffffffffffffffffffffffffffffffffffff161461050d576040517f08c379a000000000000000000000000000000000000000000000000000000000815260040161050490610fae565b60405180910390fd5b6105168361086e565b63ffffffff16670de0b6b3a76400000267ffffffffffffffff163414610571576040517f08c379a000000000000000000000000000000000000000000000000000000000815260040161056890610f8e565b60405180910390fd5b60006001600085815260200190815260200160002060009054906101000a900473ffffffffffffffffffffffffffffffffffffffff1690508073ffffffffffffffffffffffffffffffffffffffff166108fc349081150290604051600060405180830381858888f193505050501580156105ef573d6000803e3d6000fd5b50826001600086815260200190815260200160002060006101000a81548173ffffffffffffffffffffffffffffffffffffffff021916908373ffffffffffffffffffffffffffffffffffffffff1602179055508273ffffffffffffffffffffffffffffffffffffffff168173ffffffffffffffffffffffffffffffffffffffff167fddf252ad1be2c89b69c2b068fc378daa952ba7f163c4a11628f55a4df523b3ef8660405161069f9190610ff0565b60405180910390a350505050565b6060806000805480602002602001604051908101604052809291908181526020016000905b8282101561086157838290600052602060002090600302016040518060a0016040529081600082018054600181600116156101000203166002900480601f01602080910402602001604051908101604052809291908181526020018280546001816001161561010002031660029004801561078e5780601f106107635761010080835404028352916020019161078e565b820191906000526020600020905b81548152906001019060200180831161077157829003601f168201915b505050505081526020016001820160009054906101000a900460ff1660ff1660ff1681526020016001820160019054906101000a900461ffff1661ffff1661ffff1681526020016001820160039054906101000a900463ffffffff1663ffffffff1663ffffffff1681526020016002820180548060200260200160405190810160405280929190818152602001828054801561084957602002820191906000526020600020905b815481526020019060010190808311610835575b505050505081525050815260200190600101906106d2565b5050505090508091505090565b600080828154811061087c57fe5b906000526020600020906003020160010160039054906101000a900463ffffffff169050919050565b6040518060a0016040528060608152602001600060ff168152602001600061ffff168152602001600063ffffffff168152602001606081525090565b828054600181600116156101000203166002900490600052602060002090601f016020900481019282601f1061092257805160ff1916838001178555610950565b82800160010185558215610950579182015b8281111561094f578251825591602001919060010190610934565b5b50905061095d91906109ae565b5090565b82805482825590600052602060002090810192821561099d579160200282015b8281111561099c578251825591602001919060010190610981565b5b5090506109aa91906109ae565b5090565b6109d091905b808211156109cc5760008160009055506001016109b4565b5090565b90565b6000813590506109e2816111e5565b92915050565b600082601f8301126109f957600080fd5b8135610a0c610a0782611038565b61100b565b91508181835260208401935060208101905083856020840282011115610a3157600080fd5b60005b83811015610a615781610a478882610ad4565b845260208401935060208301925050600181019050610a34565b5050505092915050565b600082601f830112610a7c57600080fd5b8135610a8f610a8a82611060565b61100b565b91508082526020830160208301858383011115610aab57600080fd5b610ab6838284611192565b50505092915050565b600081359050610ace816111fc565b92915050565b600081359050610ae381611213565b92915050565b600081359050610af88161122a565b92915050565b600081359050610b0d81611241565b92915050565b600080600080600060a08688031215610b2b57600080fd5b600086013567ffffffffffffffff811115610b4557600080fd5b610b5188828901610a6b565b9550506020610b6288828901610afe565b9450506040610b7388828901610abf565b9350506060610b8488828901610ae9565b925050608086013567ffffffffffffffff811115610ba157600080fd5b610bad888289016109e8565b9150509295509295909350565b600060208284031215610bcc57600080fd5b6000610bda84828501610ad4565b91505092915050565b60008060408385031215610bf657600080fd5b6000610c0485828601610ad4565b9250506020610c15858286016109d3565b9150509250929050565b6000610c2b8383610e89565b905092915050565b6000610c3f8383610f15565b60208301905092915050565b610c548161112b565b82525050565b6000610c65826110ac565b610c6f81856110e7565b935083602082028501610c818561108c565b8060005b85811015610cbd5784840389528151610c9e8582610c1f565b9450610ca9836110cd565b925060208a01995050600181019050610c85565b50829750879550505050505092915050565b6000610cda826110b7565b610ce481856110f8565b9350610cef8361109c565b8060005b83811015610d20578151610d078882610c33565b9750610d12836110da565b925050600181019050610cf3565b5085935050505092915050565b6000610d38826110c2565b610d428185611109565b9350610d528185602086016111a1565b610d5b816111d4565b840191505092915050565b6000610d7360238361111a565b91507f596f75206d75737420676976652074686520657861637420686f75736520707260008301527f69636500000000000000000000000000000000000000000000000000000000006020830152604082019050919050565b6000610dd960158361111a565b91507f53656e646572206e6f7420617574686f72697a656400000000000000000000006000830152602082019050919050565b600060a0830160008301518482036000860152610e298282610d2d565b9150506020830151610e3e6020860182610f42565b506040830151610e516040860182610f06565b506060830151610e646060860182610f33565b5060808301518482036080860152610e7c8282610ccf565b9150508091505092915050565b600060a0830160008301518482036000860152610ea68282610d2d565b9150506020830151610ebb6020860182610f42565b506040830151610ece6040860182610f06565b506060830151610ee16060860182610f33565b5060808301518482036080860152610ef98282610ccf565b9150508091505092915050565b610f0f8161113d565b82525050565b610f1e8161116b565b82525050565b610f2d8161116b565b82525050565b610f3c81611175565b82525050565b610f4b81611185565b82525050565b6000602082019050610f666000830184610c4b565b92915050565b60006020820190508181036000830152610f868184610c5a565b905092915050565b60006020820190508181036000830152610fa781610d66565b9050919050565b60006020820190508181036000830152610fc781610dcc565b9050919050565b60006020820190508181036000830152610fe88184610e0c565b905092915050565b60006020820190506110056000830184610f24565b92915050565b6000604051905081810181811067ffffffffffffffff8211171561102e57600080fd5b8060405250919050565b600067ffffffffffffffff82111561104f57600080fd5b602082029050602081019050919050565b600067ffffffffffffffff82111561107757600080fd5b601f19601f8301169050602081019050919050565b6000819050602082019050919050565b6000819050602082019050919050565b600081519050919050565b600081519050919050565b600081519050919050565b6000602082019050919050565b6000602082019050919050565b600082825260208201905092915050565b600082825260208201905092915050565b600082825260208201905092915050565b600082825260208201905092915050565b60006111368261114b565b9050919050565b600061ffff82169050919050565b600073ffffffffffffffffffffffffffffffffffffffff82169050919050565b6000819050919050565b600063ffffffff82169050919050565b600060ff82169050919050565b82818337600083830152505050565b60005b838110156111bf5780820151818401526020810190506111a4565b838111156111ce576000848401525b50505050565b6000601f19601f8301169050919050565b6111ee8161112b565b81146111f957600080fd5b50565b6112058161113d565b811461121057600080fd5b50565b61121c8161116b565b811461122757600080fd5b50565b61123381611175565b811461123e57600080fd5b50565b61124a81611185565b811461125557600080fd5b5056fea365627a7a723158209b6456de11ef22af374ae88a80a5ff2f4ac05deea4b865a6dbb4889bcc2604186c6578706572696d656e74616cf564736f6c634300050c0040",
  "source": "pragma solidity ^0.5.12;\r\npragma experimental ABIEncoderV2;\r\n\r\ncontract SmartKetplace {\r\n    struct House {\r\n        string location;\r\n        uint8 roomCount;\r\n        uint16 area;\r\n        uint32 price;\r\n        uint256[] documents;\r\n    }\r\n\r\n    House[] internal houses;\r\n    mapping (uint256 => address payable) public houseToOwner;\r\n\r\n    // Evènement lors de l'ajout d'une maison dans le catalogue\r\n    event NewHouse(uint houseId);\r\n    // Evènement lors du transfert du propriété d'une maison\r\n    event Transfer(address indexed _from, address indexed _to, uint256 _tokenId);\r\n\r\n    // L'acheteur doit être l'exécuteur de la requête\r\n    modifier onlyBuyer(address buyer){\r\n        require(msg.sender == buyer, \"Sender not authorized\");\r\n        _;\r\n    }\r\n\r\n    // Ajout d'une maison dans le catalogue de vente\r\n    function addHouse(string memory _location, uint8 _roomCount, uint16 _area, uint32 _price, uint[] memory _documents) public {\r\n        uint id = houses.push(House(_location, _roomCount, _area, _price, _documents)) - 1;\r\n        houseToOwner[id] = msg.sender;\r\n        emit NewHouse(id);\r\n    }\r\n\r\n    // Achat d'une maison par une personne\r\n    function buyHouse(uint _houseId, address payable _buyer) public onlyBuyer(_buyer) payable {\r\n        require(msg.value == 1 ether * getHousePrice(_houseId), \"You must give the exact house price\");\r\n\r\n        // Transfert monétaire\r\n        address payable oldOwner = houseToOwner[_houseId];\r\n        oldOwner.transfer(msg.value);\r\n\r\n        // Transfert de la propriété dans la blockchain\r\n        houseToOwner[_houseId] = _buyer;\r\n\r\n        // Appel de l'évènement\r\n        emit Transfer(oldOwner, _buyer, _houseId);\r\n    }\r\n\r\n    // Récupération de l'ensemble du catalogue\r\n    function getHouses() public view returns(House[] memory) {\r\n        House[] memory temp = houses;\r\n        return temp;\r\n    }\r\n\r\n    // Récupération d'une seule maison par id\r\n    function getHouse(uint _houseId) public view returns(House memory) {\r\n        return houses[_houseId];\r\n    }\r\n\r\n    // Récupération du prix d'une maison\r\n    function getHousePrice(uint _houseId) private view returns(uint32) {\r\n        return houses[_houseId].price;\r\n    }\r\n}",
  "sourcePath": "D:/Diego/Documents/ESGI/S3/Blockchain/projet/SmartKetplace/truffle/contracts/SmartKetplace.sol",
  "compiler": {
    "name": "solc",
    "version": "0.5.12+commit.7709ece9.Emscripten.clang"
  },
  "schemaVersion": "3.0.20",
  "updatedAt": "2020-01-19T16:22:15.057Z",
  "networkType": "ethereum",
  "devdoc": {
    "methods": {}
  },
  "userdoc": {
    "methods": {}
  }
}